{"abi":[{"type":"constructor","inputs":[],"stateMutability":"nonpayable"},{"type":"function","name":"btcUsdPrice","inputs":[],"outputs":[{"name":"","type":"uint256","internalType":"uint256"}],"stateMutability":"view"},{"type":"function","name":"getPrice","inputs":[],"outputs":[{"name":"","type":"uint256","internalType":"uint256"}],"stateMutability":"view"},{"type":"function","name":"owner","inputs":[],"outputs":[{"name":"","type":"address","internalType":"address"}],"stateMutability":"view"},{"type":"function","name":"updatePrice","inputs":[{"name":"_newPrice","type":"uint256","internalType":"uint256"}],"outputs":[],"stateMutability":"nonpayable"},{"type":"event","name":"PriceUpdated","inputs":[{"name":"newPrice","type":"uint256","indexed":false,"internalType":"uint256"}],"anonymous":false}],"bytecode":{"object":"0x6080604052348015600f57600080fd5b50600180546001600160a01b031916331790556101a8806100316000396000f3fe608060405234801561001057600080fd5b506004361061004c5760003560e01c80638d6cc56d146100515780638da5cb5b1461006657806398d5fdca14610096578063fbdf82ae146100a8575b600080fd5b61006461005f366004610159565b6100b1565b005b600154610079906001600160a01b031681565b6040516001600160a01b0390911681526020015b60405180910390f35b6000545b60405190815260200161008d565b61009a60005481565b6001546001600160a01b0316331461011e5760405162461bcd60e51b815260206004820152602660248201527f4f6e6c7920746865206f776e65722063616e20706572666f726d20746869732060448201526530b1ba34b7b760d11b606482015260840160405180910390fd5b60008190556040518181527f66cbca4f3c64fecf1dcb9ce094abcf7f68c3450a1d4e3a8e917dd621edb4ebe09060200160405180910390a150565b60006020828403121561016b57600080fd5b503591905056fea26469706673582212200d38547d9e15d274ff7541cc0213edfec9f9ca0449f700b6bc16ec38824b5efb64736f6c63430008190033","linkReferences":{}},"methodIdentifiers":{"btcUsdPrice()":"fbdf82ae","getPrice()":"98d5fdca","owner()":"8da5cb5b","updatePrice(uint256)":"8d6cc56d"},"id":23}